{
  "address": "0xFcA607E98c6950B194037934a4D1f75e9873814d",
  "abi": [
    {
      "inputs": [],
      "stateMutability": "nonpayable",
      "type": "constructor"
    },
    {
      "inputs": [
        {
          "internalType": "address",
          "name": "sender",
          "type": "address"
        },
        {
          "internalType": "uint256",
          "name": "tokenId",
          "type": "uint256"
        },
        {
          "internalType": "address",
          "name": "owner",
          "type": "address"
        }
      ],
      "name": "ERC721IncorrectOwner",
      "type": "error"
    },
    {
      "inputs": [
        {
          "internalType": "address",
          "name": "operator",
          "type": "address"
        },
        {
          "internalType": "uint256",
          "name": "tokenId",
          "type": "uint256"
        }
      ],
      "name": "ERC721InsufficientApproval",
      "type": "error"
    },
    {
      "inputs": [
        {
          "internalType": "address",
          "name": "approver",
          "type": "address"
        }
      ],
      "name": "ERC721InvalidApprover",
      "type": "error"
    },
    {
      "inputs": [
        {
          "internalType": "address",
          "name": "operator",
          "type": "address"
        }
      ],
      "name": "ERC721InvalidOperator",
      "type": "error"
    },
    {
      "inputs": [
        {
          "internalType": "address",
          "name": "owner",
          "type": "address"
        }
      ],
      "name": "ERC721InvalidOwner",
      "type": "error"
    },
    {
      "inputs": [
        {
          "internalType": "address",
          "name": "receiver",
          "type": "address"
        }
      ],
      "name": "ERC721InvalidReceiver",
      "type": "error"
    },
    {
      "inputs": [
        {
          "internalType": "address",
          "name": "sender",
          "type": "address"
        }
      ],
      "name": "ERC721InvalidSender",
      "type": "error"
    },
    {
      "inputs": [
        {
          "internalType": "uint256",
          "name": "tokenId",
          "type": "uint256"
        }
      ],
      "name": "ERC721NonexistentToken",
      "type": "error"
    },
    {
      "inputs": [
        {
          "internalType": "address",
          "name": "owner",
          "type": "address"
        }
      ],
      "name": "OwnableInvalidOwner",
      "type": "error"
    },
    {
      "inputs": [
        {
          "internalType": "address",
          "name": "account",
          "type": "address"
        }
      ],
      "name": "OwnableUnauthorizedAccount",
      "type": "error"
    },
    {
      "anonymous": false,
      "inputs": [
        {
          "indexed": true,
          "internalType": "address",
          "name": "owner",
          "type": "address"
        },
        {
          "indexed": true,
          "internalType": "address",
          "name": "approved",
          "type": "address"
        },
        {
          "indexed": true,
          "internalType": "uint256",
          "name": "tokenId",
          "type": "uint256"
        }
      ],
      "name": "Approval",
      "type": "event"
    },
    {
      "anonymous": false,
      "inputs": [
        {
          "indexed": true,
          "internalType": "address",
          "name": "owner",
          "type": "address"
        },
        {
          "indexed": true,
          "internalType": "address",
          "name": "operator",
          "type": "address"
        },
        {
          "indexed": false,
          "internalType": "bool",
          "name": "approved",
          "type": "bool"
        }
      ],
      "name": "ApprovalForAll",
      "type": "event"
    },
    {
      "anonymous": false,
      "inputs": [
        {
          "indexed": true,
          "internalType": "uint256",
          "name": "eventId",
          "type": "uint256"
        },
        {
          "indexed": true,
          "internalType": "address",
          "name": "organizer",
          "type": "address"
        },
        {
          "indexed": false,
          "internalType": "string",
          "name": "name",
          "type": "string"
        },
        {
          "indexed": false,
          "internalType": "uint256",
          "name": "startTime",
          "type": "uint256"
        },
        {
          "indexed": false,
          "internalType": "uint256",
          "name": "endTime",
          "type": "uint256"
        },
        {
          "indexed": false,
          "internalType": "uint256",
          "name": "ticketPrice",
          "type": "uint256"
        },
        {
          "indexed": false,
          "internalType": "uint256",
          "name": "maxAttendees",
          "type": "uint256"
        }
      ],
      "name": "EventCreated",
      "type": "event"
    },
    {
      "anonymous": false,
      "inputs": [
        {
          "indexed": true,
          "internalType": "address",
          "name": "previousOwner",
          "type": "address"
        },
        {
          "indexed": true,
          "internalType": "address",
          "name": "newOwner",
          "type": "address"
        }
      ],
      "name": "OwnershipTransferred",
      "type": "event"
    },
    {
      "anonymous": false,
      "inputs": [
        {
          "indexed": true,
          "internalType": "uint256",
          "name": "eventId",
          "type": "uint256"
        },
        {
          "indexed": true,
          "internalType": "uint256",
          "name": "tokenId",
          "type": "uint256"
        },
        {
          "indexed": true,
          "internalType": "bytes32",
          "name": "hash2",
          "type": "bytes32"
        }
      ],
      "name": "TicketMinted",
      "type": "event"
    },
    {
      "anonymous": false,
      "inputs": [
        {
          "indexed": true,
          "internalType": "uint256",
          "name": "eventId",
          "type": "uint256"
        },
        {
          "indexed": true,
          "internalType": "uint256",
          "name": "tokenId",
          "type": "uint256"
        },
        {
          "indexed": true,
          "internalType": "bytes32",
          "name": "hash2",
          "type": "bytes32"
        }
      ],
      "name": "TicketVerified",
      "type": "event"
    },
    {
      "anonymous": false,
      "inputs": [
        {
          "indexed": true,
          "internalType": "address",
          "name": "from",
          "type": "address"
        },
        {
          "indexed": true,
          "internalType": "address",
          "name": "to",
          "type": "address"
        },
        {
          "indexed": true,
          "internalType": "uint256",
          "name": "tokenId",
          "type": "uint256"
        }
      ],
      "name": "Transfer",
      "type": "event"
    },
    {
      "inputs": [
        {
          "internalType": "address",
          "name": "to",
          "type": "address"
        },
        {
          "internalType": "uint256",
          "name": "tokenId",
          "type": "uint256"
        }
      ],
      "name": "approve",
      "outputs": [],
      "stateMutability": "nonpayable",
      "type": "function"
    },
    {
      "inputs": [
        {
          "internalType": "address",
          "name": "owner",
          "type": "address"
        }
      ],
      "name": "balanceOf",
      "outputs": [
        {
          "internalType": "uint256",
          "name": "",
          "type": "uint256"
        }
      ],
      "stateMutability": "view",
      "type": "function"
    },
    {
      "inputs": [
        {
          "components": [
            {
              "internalType": "string",
              "name": "name",
              "type": "string"
            },
            {
              "internalType": "string",
              "name": "description",
              "type": "string"
            },
            {
              "internalType": "string",
              "name": "imageCID",
              "type": "string"
            },
            {
              "internalType": "uint256",
              "name": "startTime",
              "type": "uint256"
            },
            {
              "internalType": "uint256",
              "name": "endTime",
              "type": "uint256"
            },
            {
              "internalType": "string",
              "name": "venueName",
              "type": "string"
            },
            {
              "internalType": "string",
              "name": "streetAddress",
              "type": "string"
            },
            {
              "internalType": "string",
              "name": "city",
              "type": "string"
            },
            {
              "internalType": "string",
              "name": "state",
              "type": "string"
            },
            {
              "internalType": "string",
              "name": "postalCode",
              "type": "string"
            },
            {
              "internalType": "string",
              "name": "country",
              "type": "string"
            },
            {
              "internalType": "bool",
              "name": "isOnline",
              "type": "bool"
            },
            {
              "internalType": "uint256",
              "name": "ticketPrice",
              "type": "uint256"
            },
            {
              "internalType": "uint256",
              "name": "maxAttendees",
              "type": "uint256"
            },
            {
              "internalType": "bool",
              "name": "isPrivate",
              "type": "bool"
            }
          ],
          "internalType": "struct EventTicketing.EventDetails",
          "name": "details",
          "type": "tuple"
        }
      ],
      "name": "createEvent",
      "outputs": [
        {
          "internalType": "uint256",
          "name": "",
          "type": "uint256"
        }
      ],
      "stateMutability": "nonpayable",
      "type": "function"
    },
    {
      "inputs": [
        {
          "internalType": "uint256",
          "name": "",
          "type": "uint256"
        },
        {
          "internalType": "bytes32",
          "name": "",
          "type": "bytes32"
        }
      ],
      "name": "eventTickets",
      "outputs": [
        {
          "internalType": "bool",
          "name": "",
          "type": "bool"
        }
      ],
      "stateMutability": "view",
      "type": "function"
    },
    {
      "inputs": [
        {
          "internalType": "uint256",
          "name": "",
          "type": "uint256"
        }
      ],
      "name": "events",
      "outputs": [
        {
          "internalType": "uint256",
          "name": "eventId",
          "type": "uint256"
        },
        {
          "internalType": "address",
          "name": "organizer",
          "type": "address"
        },
        {
          "internalType": "string",
          "name": "name",
          "type": "string"
        },
        {
          "internalType": "string",
          "name": "description",
          "type": "string"
        },
        {
          "internalType": "string",
          "name": "imageCID",
          "type": "string"
        },
        {
          "internalType": "uint256",
          "name": "startTime",
          "type": "uint256"
        },
        {
          "internalType": "uint256",
          "name": "endTime",
          "type": "uint256"
        },
        {
          "internalType": "string",
          "name": "venueName",
          "type": "string"
        },
        {
          "internalType": "string",
          "name": "streetAddress",
          "type": "string"
        },
        {
          "internalType": "string",
          "name": "city",
          "type": "string"
        },
        {
          "internalType": "string",
          "name": "state",
          "type": "string"
        },
        {
          "internalType": "string",
          "name": "postalCode",
          "type": "string"
        },
        {
          "internalType": "string",
          "name": "country",
          "type": "string"
        },
        {
          "internalType": "bool",
          "name": "isOnline",
          "type": "bool"
        },
        {
          "internalType": "uint256",
          "name": "ticketPrice",
          "type": "uint256"
        },
        {
          "internalType": "uint256",
          "name": "maxAttendees",
          "type": "uint256"
        },
        {
          "internalType": "uint256",
          "name": "ticketsSold",
          "type": "uint256"
        },
        {
          "internalType": "enum EventTicketing.EventStatus",
          "name": "status",
          "type": "uint8"
        },
        {
          "internalType": "bool",
          "name": "isPrivate",
          "type": "bool"
        }
      ],
      "stateMutability": "view",
      "type": "function"
    },
    {
      "inputs": [
        {
          "internalType": "uint256",
          "name": "tokenId",
          "type": "uint256"
        }
      ],
      "name": "getApproved",
      "outputs": [
        {
          "internalType": "address",
          "name": "",
          "type": "address"
        }
      ],
      "stateMutability": "view",
      "type": "function"
    },
    {
      "inputs": [
        {
          "internalType": "bytes32",
          "name": "hash1",
          "type": "bytes32"
        }
      ],
      "name": "getEventsByHash1",
      "outputs": [
        {
          "internalType": "uint256[]",
          "name": "",
          "type": "uint256[]"
        }
      ],
      "stateMutability": "view",
      "type": "function"
    },
    {
      "inputs": [
        {
          "internalType": "bytes32",
          "name": "hash2",
          "type": "bytes32"
        }
      ],
      "name": "getTokenIdByHash2",
      "outputs": [
        {
          "internalType": "uint256",
          "name": "",
          "type": "uint256"
        }
      ],
      "stateMutability": "view",
      "type": "function"
    },
    {
      "inputs": [
        {
          "internalType": "address",
          "name": "owner",
          "type": "address"
        },
        {
          "internalType": "address",
          "name": "operator",
          "type": "address"
        }
      ],
      "name": "isApprovedForAll",
      "outputs": [
        {
          "internalType": "bool",
          "name": "",
          "type": "bool"
        }
      ],
      "stateMutability": "view",
      "type": "function"
    },
    {
      "inputs": [
        {
          "internalType": "uint256",
          "name": "eventId",
          "type": "uint256"
        },
        {
          "internalType": "bytes32",
          "name": "hash1",
          "type": "bytes32"
        },
        {
          "internalType": "bytes32",
          "name": "hash2",
          "type": "bytes32"
        }
      ],
      "name": "mintTicket",
      "outputs": [
        {
          "internalType": "uint256",
          "name": "",
          "type": "uint256"
        }
      ],
      "stateMutability": "payable",
      "type": "function"
    },
    {
      "inputs": [],
      "name": "name",
      "outputs": [
        {
          "internalType": "string",
          "name": "",
          "type": "string"
        }
      ],
      "stateMutability": "view",
      "type": "function"
    },
    {
      "inputs": [],
      "name": "owner",
      "outputs": [
        {
          "internalType": "address",
          "name": "",
          "type": "address"
        }
      ],
      "stateMutability": "view",
      "type": "function"
    },
    {
      "inputs": [
        {
          "internalType": "uint256",
          "name": "tokenId",
          "type": "uint256"
        }
      ],
      "name": "ownerOf",
      "outputs": [
        {
          "internalType": "address",
          "name": "",
          "type": "address"
        }
      ],
      "stateMutability": "view",
      "type": "function"
    },
    {
      "inputs": [],
      "name": "renounceOwnership",
      "outputs": [],
      "stateMutability": "nonpayable",
      "type": "function"
    },
    {
      "inputs": [
        {
          "internalType": "address",
          "name": "from",
          "type": "address"
        },
        {
          "internalType": "address",
          "name": "to",
          "type": "address"
        },
        {
          "internalType": "uint256",
          "name": "tokenId",
          "type": "uint256"
        }
      ],
      "name": "safeTransferFrom",
      "outputs": [],
      "stateMutability": "nonpayable",
      "type": "function"
    },
    {
      "inputs": [
        {
          "internalType": "address",
          "name": "from",
          "type": "address"
        },
        {
          "internalType": "address",
          "name": "to",
          "type": "address"
        },
        {
          "internalType": "uint256",
          "name": "tokenId",
          "type": "uint256"
        },
        {
          "internalType": "bytes",
          "name": "data",
          "type": "bytes"
        }
      ],
      "name": "safeTransferFrom",
      "outputs": [],
      "stateMutability": "nonpayable",
      "type": "function"
    },
    {
      "inputs": [
        {
          "internalType": "address",
          "name": "operator",
          "type": "address"
        },
        {
          "internalType": "bool",
          "name": "approved",
          "type": "bool"
        }
      ],
      "name": "setApprovalForAll",
      "outputs": [],
      "stateMutability": "nonpayable",
      "type": "function"
    },
    {
      "inputs": [
        {
          "internalType": "bytes4",
          "name": "interfaceId",
          "type": "bytes4"
        }
      ],
      "name": "supportsInterface",
      "outputs": [
        {
          "internalType": "bool",
          "name": "",
          "type": "bool"
        }
      ],
      "stateMutability": "view",
      "type": "function"
    },
    {
      "inputs": [],
      "name": "symbol",
      "outputs": [
        {
          "internalType": "string",
          "name": "",
          "type": "string"
        }
      ],
      "stateMutability": "view",
      "type": "function"
    },
    {
      "inputs": [
        {
          "internalType": "uint256",
          "name": "",
          "type": "uint256"
        }
      ],
      "name": "ticketEventMapping",
      "outputs": [
        {
          "internalType": "uint256",
          "name": "",
          "type": "uint256"
        }
      ],
      "stateMutability": "view",
      "type": "function"
    },
    {
      "inputs": [
        {
          "internalType": "bytes32",
          "name": "",
          "type": "bytes32"
        }
      ],
      "name": "ticketHashes",
      "outputs": [
        {
          "internalType": "uint256",
          "name": "",
          "type": "uint256"
        }
      ],
      "stateMutability": "view",
      "type": "function"
    },
    {
      "inputs": [
        {
          "internalType": "uint256",
          "name": "tokenId",
          "type": "uint256"
        }
      ],
      "name": "tokenURI",
      "outputs": [
        {
          "internalType": "string",
          "name": "",
          "type": "string"
        }
      ],
      "stateMutability": "view",
      "type": "function"
    },
    {
      "inputs": [
        {
          "internalType": "address",
          "name": "from",
          "type": "address"
        },
        {
          "internalType": "address",
          "name": "to",
          "type": "address"
        },
        {
          "internalType": "uint256",
          "name": "tokenId",
          "type": "uint256"
        }
      ],
      "name": "transferFrom",
      "outputs": [],
      "stateMutability": "nonpayable",
      "type": "function"
    },
    {
      "inputs": [
        {
          "internalType": "address",
          "name": "newOwner",
          "type": "address"
        }
      ],
      "name": "transferOwnership",
      "outputs": [],
      "stateMutability": "nonpayable",
      "type": "function"
    },
    {
      "inputs": [
        {
          "internalType": "bytes32",
          "name": "",
          "type": "bytes32"
        },
        {
          "internalType": "uint256",
          "name": "",
          "type": "uint256"
        }
      ],
      "name": "userEvents",
      "outputs": [
        {
          "internalType": "uint256",
          "name": "",
          "type": "uint256"
        }
      ],
      "stateMutability": "view",
      "type": "function"
    }
  ],
  "transactionHash": "0xec9d4d2dbd14f1290d7c5d56d0058a13ba0d2d230d035979df0ec557d345ba19",
  "args": [],
  "numDeployments": 1,
  "solcInputHash": "38cd596fec1d145da26e64c403f96749",
  "bytecode": "0x6080346200037c576001600160401b03906040908082018381118282101762000366578252600b81526020906a115d995b9d151a58dad95d60aa1b828201528251938385018581108282111762000366578452600585526408aaca892b60db1b83860152815181811162000366576000938454916001948584811c941680156200035b575b8385101462000347578190601f94858111620002f4575b5083908583116001146200029057889262000284575b5050600019600383901b1c191690851b1785555b8651928311620002705783548481811c9116801562000265575b82821014620002515782811162000209575b5080918311600114620001a257508394958293949262000196575b5050600019600383901b1c191690821b1790555b3315620001805760068054336001600160a01b0319821681179092559251926001600160a01b03167f8be0079c531659141344cd1fd0a4f28419497f9722a3daafe3b4186f6b6457e08380a38060075560085561279f9081620003828239f35b6024915190631e4fbdf760e01b82526004820152fd5b0151905038806200010c565b90601f198316968486528286209286905b898210620001f1575050838596979810620001d7575b505050811b01905562000120565b015160001960f88460031b161c19169055388080620001c9565b808785968294968601518155019501930190620001b3565b8486528186208380860160051c82019284871062000247575b0160051c019085905b8281106200023b575050620000f1565b8781550185906200022b565b9250819262000222565b634e487b7160e01b86526022600452602486fd5b90607f1690620000df565b634e487b7160e01b85526041600452602485fd5b015190503880620000b1565b8880528489208894509190601f1984168a5b87828210620002dd5750508411620002c3575b505050811b018555620000c5565b015160001960f88460031b161c19169055388080620002b5565b8385015186558b97909501949384019301620002a2565b9091508780528388208580850160051c8201928686106200033d575b918991869594930160051c01915b8281106200032e5750506200009b565b8a81558594508991016200031e565b9250819262000310565b634e487b7160e01b87526022600452602487fd5b93607f169362000084565b634e487b7160e01b600052604160045260246000fd5b600080fdfe61026080604052600436101561001457600080fd5b60003560e01c90816301ffc9a7146120d75750806306fdde0314612034578063081812fc14611ff6578063095ea7b314611f0f5780630b79143014611ce75780631837fd2614610cf557806322e687031461025e57806323b872dd14610cde5780632ef5172514610c9f5780634058b44e14610c7357806342842e0e14610c455780636352211e14610c1557806370a0823114610bbc578063715018a614610b5f5780638c899e40146105aa5780638da5cb5b1461058157806395d89b41146104a2578063a194a512146103fc578063a22cb4651461034e578063b88d4fde146102e1578063c87b56dd1461028a578063c9e0e12d1461025e578063dc1f0df214610217578063e985e9c5146101c15763f2fde38b1461013357600080fd5b346101bc5760203660031901126101bc5761014c612182565b61015461237f565b6001600160a01b039081169081156101a357600654826001600160601b0360a01b821617600655167f8be0079c531659141344cd1fd0a4f28419497f9722a3daafe3b4186f6b6457e0600080a3005b604051631e4fbdf760e01b815260006004820152602490fd5b600080fd5b346101bc5760403660031901126101bc576101da612182565b6101e2612198565b9060018060a01b03809116600052600560205260406000209116600052602052602060ff604060002054166040519015158152f35b346101bc5760403660031901126101bc57602435600435600052600c602052604060002080548210156101bc5760209161025091612351565b90546040519160031b1c8152f35b346101bc5760203660031901126101bc57600435600052600d6020526020604060002054604051908152f35b346101bc5760203660031901126101bc576102a66004356125a0565b5060006040516102b5816121e8565b526102dd6040516102c5816121e8565b60008152604051918291602083526020830190612142565b0390f35b346101bc5760803660031901126101bc576102fa612182565b610302612198565b90604435606435926001600160401b0384116101bc57366023850112156101bc5761033a61034c94369060248160040135910161231a565b926103468383836123ab565b336125db565b005b346101bc5760403660031901126101bc57610367612182565b60243590811515908183036101bc576001600160a01b03169182156103e3576103b59033600052600560205260406000208460005260205260406000209060ff801983541691151516179055565b6040519081527f17307eab39ab6107e8899845ad3d59bd9653f200f220920489ca2b5937696c3160203392a3005b604051630b61174360e31b815260048101849052602490fd5b346101bc576020806003193601126101bc57600435600052600c8152604060002060405190818382549182815201908192600052846000209060005b8682821061048e57868661044e82880383612203565b604051928392818401908285525180915260408401929160005b82811061047757505050500390f35b835185528695509381019392810192600101610468565b835485529093019260019283019201610438565b346101bc5760003660031901126101bc57604051600060018054906104c6826121ae565b8085529181811690811561055a5750600114610501575b6102dd846104ed81860382612203565b604051918291602083526020830190612142565b600081815292507fb10e2d527612073b26eecdfd717e6a320cf44b4afac2b0732d9fcbe2b7fa0cf65b8284106105425750505081016020016104ed826104dd565b8054602085870181019190915290930192810161052a565b60ff191660208087019190915292151560051b850190920192506104ed91508390506104dd565b346101bc5760003660031901126101bc576006546040516001600160a01b039091168152602090f35b60603660031901126101bc57600435602480359060448035928460005260209360098552604060002093845415610b265760ff6011860154166003811015610b1157610ad9576006850154421015610aa55760108501908154600f8701541115610a6f57600e8601543403610a345787600052600a8752604060002084600052875260ff604060002054166109f2576001908180600754019788600755019460018060a01b0396878754169060405190610663826121e8565b6000825282156109da578a60005260028c528960406000205416610998578a60005260028c528b8b848c6040600020541660028115159485610965575b836000526003815260406000208c815401905584600052526040600020826001600160601b0360a01b8254161790557fddf252ad1be2c89b69c2b068fc378daa952ba7f163c4a11628f55a4df523b3ef600080a461094d57823b610822575b50505089600052600a8952604060002081600052895260406000208360ff1982541617905587600052600b89528960406000205584600052600d895287604060002055600052600c885260406000208054906801000000000000000082101561080d5790610771918482018155612351565b919080549260031b60001993848d831b921b191617905583549182146107f957509286600097989988979488979488970190557f737b96184557d1cc75698bed122c07a0d8e19da828e2e4d6f37b898a1f91c95f8680a45416819034156107ef575b3491f1156107e357604051908152f35b6040513d6000823e3d90fd5b6108fc91506107d3565b634e487b7160e01b60009081526011600452fd5b82634e487b7160e01b60005260416004526000fd5b8b859d9a989694939c9b999795928d8b600061086c956040519687958694859385630a85bd0160e11b9c8d8752336004880152860152840152608060648401526084830190612142565b03925af16000918161090d575b506108d3578c8c8c3d156108cc573d610891816122ff565b9061089f6040519283612203565b81523d60008383013e5b805191826108c95750505060405190633250574960e11b82526004820152fd5b01fd5b60606108a9565b63ffffffff60e09d9597999b9c939496989a9d1b16036108f657508a80806106ff565b905060405190633250574960e11b82526004820152fd5b9091508b81813d8311610946575b6109258183612203565b810103126101bc57516001600160e01b0319811681036101bc57908e610879565b503d61091b565b6040516339e3563760e11b8152600060048201528590fd5b60008581526004602052604080822080546001600160a01b031916905584825260038352902080546000190190556106a0565b8b7f5469636b65747320617265206e6f6e2d7472616e7366657261626c6500000000606492601c886040519462461bcd60e51b86526004860152840152820152fd5b604051633250574960e11b8152600060048201528590fd5b867f5469636b657420616c72656164792070757263686173656400000000000000008660186064946040519462461bcd60e51b86526004860152840152820152fd5b8675496e636f7272656374207469636b657420707269636560501b8660166064946040519462461bcd60e51b86526004860152840152820152fd5b8670115d995b9d081a5cc81cdbdb19081bdd5d607a1b8660116064946040519462461bcd60e51b86526004860152840152820152fd5b856e115d995b9d081a185cc8195b991959608a1b85600f6064946040519462461bcd60e51b86526004860152840152820152fd5b85724576656e74206973206e6f742061637469766560681b8560136064946040519462461bcd60e51b86526004860152840152820152fd5b50634e487b7160e01b60009081526021600452fd5b8573115d995b9d08191bd95cc81b9bdd08195e1a5cdd60621b8560146064946040519462461bcd60e51b86526004860152840152820152fd5b346101bc5760003660031901126101bc57610b7861237f565b600680546001600160a01b031981169091556000906001600160a01b03167f8be0079c531659141344cd1fd0a4f28419497f9722a3daafe3b4186f6b6457e08280a3005b346101bc5760203660031901126101bc576001600160a01b03610bdd612182565b168015610bfc5760005260036020526020604060002054604051908152f35b6040516322718ad960e21b815260006004820152602490fd5b346101bc5760203660031901126101bc576020610c336004356125a0565b6040516001600160a01b039091168152f35b346101bc5761034c610c56366122ca565b9060405192610c64846121e8565b600084526103468383836123ab565b346101bc5760203660031901126101bc57600435600052600b6020526020604060002054604051908152f35b346101bc5760403660031901126101bc57600435600052600a6020526040600020602435600052602052602060ff604060002054166040519015158152f35b346101bc5761034c610cef366122ca565b916123ab565b346101bc576003196020368201126101bc576001600160401b03600435116101bc576101e090600435360301126101bc5742606460043501351115611ca35760646004350135608460043501351115611c54576101a4600435013515611c0357600160085401806101405280600855610d7860043560040160043560040161272a565b91610d8d60246004350160043560040161272a565b6101605291610da46004803560448101910161272a565b94906101a052610dbe60a46004350160043560040161272a565b949061018052610dd860c46004350160043560040161272a565b6102405291610def6004803560e48101910161272a565b9091610e066101046004350160043560040161272a565b959096610e1e6101246004350160043560040161272a565b9a9061020052610e396101446004350160043560040161272a565b60c0526101e052610e4f6101646004350161275c565b60e052610e616101c46004350161275c565b61022052604051938460a052846102608101106001600160401b036102608701111761156d57610f529c610ed0610f3099610ebe610f0f96610f3f9f95610ee2968b610260610f219d016040525233602060a0510152369161231a565b60a0516040015261016051369161231a565b606060a051015236906101a05161231a565b608060a05101526064600435013560a0805101526084600435013560c060a051015236906101805161231a565b60a05160e0015261024051369161231a565b61010060a0510152369161231a565b61012060a0510152369161231a565b61014060a051015236906102005161231a565b61016060a0510152610f6a3660c0516101e05161231a565b61018060a051015260e05115156101a060a051015261018460043501356101c060a05101526101a460043501356101e060a0510152600061020060a0510152600061022060a051015261022051151561024060a05101526101405160005260096020526040600020604060a051805183556001830160018060a01b036020830151166001600160601b0360a01b82541617905501518051906001600160401b03821161156d57819061101f60028501546121ae565b601f8111611bb0575b50602090601f8311600114611b3e57600092611b33575b50508160011b916000199060031b1c19161760028201555b606060a05101518051906001600160401b03821161156d57819061107e60038501546121ae565b601f8111611ae0575b50602090601f8311600114611a6e57600092611a63575b50508160011b916000199060031b1c19161760038201555b608060a05101518051906001600160401b03821161156d5781906110dd60048501546121ae565b601f8111611a10575b50602090601f831160011461199e57600092611993575b50508160011b916000199060031b1c19161760048201555b60e060a05160a0810151600584015560c0810151600684015501518051906001600160401b03821161156d57819061115060078501546121ae565b601f8111611940575b50602090601f83116001146118ce576000926118c3575b50508160011b916000199060031b1c19161760078201555b61010060a05101518051906001600160401b03821161156d5781906111b060088501546121ae565b601f8111611870575b50602090601f83116001146117fe576000926117f3575b50508160011b916000199060031b1c19161760088201555b61012060a05101518051906001600160401b03821161156d57819061121060098501546121ae565b601f81116117a0575b50602090601f831160011461172e57600092611723575b50508160011b916000199060031b1c19161760098201555b61014060a05101518051906001600160401b03821161156d578190611270600a8501546121ae565b601f81116116d0575b50602090601f831160011461165e57600092611653575b50508160011b916000199060031b1c191617600a8201555b61016060a05101518051906001600160401b03821161156d5781906112d0600b8501546121ae565b601f8111611600575b50602090601f831160011461158e57600092611583575b50508160011b916000199060031b1c191617600b8201555b61018060a05101518051906001600160401b03821161156d578190611330600c8501546121ae565b601f811161151a575b50602090601f83116001146114a85760009261149d575b50508160011b916000199060031b1c191617600c8201555b601160a0519161138e6101a08401511515600d83019060ff801983541691151516179055565b6101c0830151600e8201556101e0830151600f820155610200830151601082015501906102208101519060038210156114875760ff61ff006102408554930151151560081b1692169061ffff19161717905560207fb6a83ff9d6bbd62d96305d6eb336e501e42317b524fcca1b5ae9d5be9195812a61141760043560040160043560040161272a565b90816040519160a083528160a084015260c0830137600060c083830101526064600435013584820152608460043501356040820152610184600435013560608201526101a46004350135608082015261014051928160c085933395601f80199101168101030190a3604051908152f35b634e487b7160e01b600052602160045260246000fd5b015190508380611350565b9250600c84016000526020600020906000935b601f19841685106114ff576001945083601f198116106114e6575b505050811b01600c820155611368565b015160001960f88460031b161c191690558380806114d6565b818101518355602094850194600190930192909101906114bb565b909150600c84016000526020600020601f840160051c810160208510611566575b90849392915b601f830160051c82018110611557575050611339565b60008155859450600101611541565b508061153b565b634e487b7160e01b600052604160045260246000fd5b0151905083806112f0565b9250600b84016000526020600020906000935b601f19841685106115e5576001945083601f198116106115cc575b505050811b01600b820155611308565b015160001960f88460031b161c191690558380806115bc565b818101518355602094850194600190930192909101906115a1565b909150600b84016000526020600020601f840160051c81016020851061164c575b90849392915b601f830160051c8201811061163d5750506112d9565b60008155859450600101611627565b5080611621565b015190508380611290565b9250600a84016000526020600020906000935b601f19841685106116b5576001945083601f1981161061169c575b505050811b01600a8201556112a8565b015160001960f88460031b161c1916905583808061168c565b81810151835560209485019460019093019290910190611671565b909150600a84016000526020600020601f840160051c81016020851061171c575b90849392915b601f830160051c8201811061170d575050611279565b600081558594506001016116f7565b50806116f1565b015190508380611230565b9250600984016000526020600020906000935b601f1984168510611785576001945083601f1981161061176c575b505050811b016009820155611248565b015160001960f88460031b161c1916905583808061175c565b81810151835560209485019460019093019290910190611741565b909150600984016000526020600020601f840160051c8101602085106117ec575b90849392915b601f830160051c820181106117dd575050611219565b600081558594506001016117c7565b50806117c1565b0151905083806111d0565b9250600884016000526020600020906000935b601f1984168510611855576001945083601f1981161061183c575b505050811b0160088201556111e8565b015160001960f88460031b161c1916905583808061182c565b81810151835560209485019460019093019290910190611811565b909150600884016000526020600020601f840160051c8101602085106118bc575b90849392915b601f830160051c820181106118ad5750506111b9565b60008155859450600101611897565b5080611891565b015190508380611170565b9250600784016000526020600020906000935b601f1984168510611925576001945083601f1981161061190c575b505050811b016007820155611188565b015160001960f88460031b161c191690558380806118fc565b818101518355602094850194600190930192909101906118e1565b909150600784016000526020600020601f840160051c81016020851061198c575b90849392915b601f830160051c8201811061197d575050611159565b60008155859450600101611967565b5080611961565b0151905083806110fd565b9250600484016000526020600020906000935b601f19841685106119f5576001945083601f198116106119dc575b505050811b016004820155611115565b015160001960f88460031b161c191690558380806119cc565b818101518355602094850194600190930192909101906119b1565b909150600484016000526020600020601f840160051c810160208510611a5c575b90849392915b601f830160051c82018110611a4d5750506110e6565b60008155859450600101611a37565b5080611a31565b01519050838061109e565b9250600384016000526020600020906000935b601f1984168510611ac5576001945083601f19811610611aac575b505050811b0160038201556110b6565b015160001960f88460031b161c19169055838080611a9c565b81810151835560209485019460019093019290910190611a81565b909150600384016000526020600020601f840160051c810160208510611b2c575b90849392915b601f830160051c82018110611b1d575050611087565b60008155859450600101611b07565b5080611b01565b01519050838061103f565b9250600284016000526020600020906000935b601f1984168510611b95576001945083601f19811610611b7c575b505050811b016002820155611057565b015160001960f88460031b161c19169055838080611b6c565b81810151835560209485019460019093019290910190611b51565b909150600284016000526020600020601f840160051c810160208510611bfc575b90849392915b601f830160051c82018110611bed575050611028565b60008155859450600101611bd7565b5080611bd1565b60405162461bcd60e51b8152602060048201526024808201527f4d617820617474656e64656573206d75737420626520677265617465722074686044820152630616e20360e41b6064820152608490fd5b60405162461bcd60e51b815260206004820152602160248201527f456e642074696d65206d7573742062652061667465722073746172742074696d6044820152606560f81b6064820152608490fd5b606460405162461bcd60e51b815260206004820152602060248201527f53746172742074696d65206d75737420626520696e20746865206675747572656044820152fd5b346101bc5760203660031901126101bc576004356000908152600960205260409020805460805260018101546001600160a01b03169080611d2a60028201612224565b611d3660038301612224565b611d4260048401612224565b6005840154600685015490611d5960078701612224565b611d6560088801612224565b91611d7260098901612224565b93611d7f600a8a01612224565b95611d8c600b8b01612224565b97611d99600c8c01612224565b99600d8c015460ff166101c052600e8c01549d600f8d01549c601001549d60110154610100526040518061012052608051905261012051602001526102608061012051604001526101205101611dee91612142565b610120518082039060600152611e0391612142565b610120518082039060800152611e1891612142565b916101205160a001526101205160c00152610120518082039060e00152611e3e91612142565b61012051808203906101000152611e5491612142565b61012051808203906101200152611e6a91612142565b61012051808203906101400152611e8091612142565b61012051808203906101600152611e9691612142565b61012051808203906101800152611eac91612142565b926101c0511515610120516101a00152610120516101c00152610120516101e001526101205161020001526101005160ff1660038110156114875761022061012051015260ff6101005160081c1615156102406101205101526101205180910390f35b346101bc5760403660031901126101bc57611f28612182565b602435611f34816125a0565b33151580611fe3575b80611fb6575b611f9e576001600160a01b039283169282918491167f8c5be1e5ebec7d5bd14f71427d1e84f3dd0314c0f7b2291e5b200ac8c7c3b925600080a4600090815260046020526040902080546001600160a01b0319169091179055005b60405163a9fbf51f60e01b8152336004820152602490fd5b5060018060a01b038116600052600560205260406000203360005260205260ff6040600020541615611f43565b506001600160a01b038116331415611f3d565b346101bc5760203660031901126101bc57600435612013816125a0565b506000526004602052602060018060a01b0360406000205416604051908152f35b346101bc5760003660031901126101bc5760405160008054612055816121ae565b8084529060019081811690811561055a575060011461207e576102dd846104ed81860382612203565b600080805292507f290decd9548b62a8d60345a988386fc84ba6bc95484008f6362f93160ef3e5635b8284106120bf5750505081016020016104ed826104dd565b805460208587018101919091529093019281016120a7565b346101bc5760203660031901126101bc576004359063ffffffff60e01b82168092036101bc576020916380ac58cd60e01b8114908115612131575b8115612120575b5015158152f35b6301ffc9a760e01b14905083612119565b635b5e139f60e01b81149150612112565b919082519283825260005b84811061216e575050826000602080949584010152601f8019910116010190565b60208183018101518483018201520161214d565b600435906001600160a01b03821682036101bc57565b602435906001600160a01b03821682036101bc57565b90600182811c921680156121de575b60208310146121c857565b634e487b7160e01b600052602260045260246000fd5b91607f16916121bd565b602081019081106001600160401b0382111761156d57604052565b90601f801991011681019081106001600160401b0382111761156d57604052565b9060405191826000825492612238846121ae565b9081845260019485811690816000146122a75750600114612264575b505061226292500383612203565b565b9093915060005260209081600020936000915b81831061228f57505061226293508201013880612254565b85548884018501529485019487945091830191612277565b91505061226294506020925060ff191682840152151560051b8201013880612254565b60609060031901126101bc576001600160a01b039060043582811681036101bc579160243590811681036101bc579060443590565b6001600160401b03811161156d57601f01601f191660200190565b929192612326826122ff565b916123346040519384612203565b8294818452818301116101bc578281602093846000960137010152565b80548210156123695760005260206000200190600090565b634e487b7160e01b600052603260045260246000fd5b6006546001600160a01b0316330361239357565b60405163118cdaa760e01b8152336004820152602490fd5b6001600160a01b03918216929091831561258757600092828452602094600286526040958387872054166125445790849182875260028152848888205416968791331515806124ae575b509060027fddf252ad1be2c89b69c2b068fc378daa952ba7f163c4a11628f55a4df523b3ef928461247b575b858352600381528b8320805460010190558683525289812080546001600160a01b0319168517905580a4169283830361245a5750505050565b6064945051926364283d7b60e01b8452600484015260248301526044820152fd5b600087815260046020526040902080546001600160a01b0319169055848352600381528b83208054600019019055612421565b91939450915080612503575b156124ca578592918791386123f5565b8786886124e7576024915190637e27328960e01b82526004820152fd5b604491519063177e802f60e01b82523360048301526024820152fd5b503387148015612528575b806124ba57508582526004815233858984205416146124ba565b5086825260058152878220338352815260ff888320541661250e565b60649087519062461bcd60e51b82526004820152601c60248201527f5469636b65747320617265206e6f6e2d7472616e7366657261626c65000000006044820152fd5b604051633250574960e11b815260006004820152602490fd5b6000818152600260205260409020546001600160a01b03169081156125c3575090565b60249060405190637e27328960e01b82526004820152fd5b909192833b6125ec575b5050505050565b604051630a85bd0160e11b8082526001600160a01b03938416600483015293831660248201526044810191909152608060648201526020959190931693909190839061263c906084830190612142565b039285816000958187895af18491816126e6575b506126b0575050503d6000146126a8573d61266a816122ff565b906126786040519283612203565b81528091843d92013e5b805192836126a357604051633250574960e11b815260048101849052602490fd5b019050fd5b506060612682565b919450915063ffffffff60e01b16036126ce575038808080806125e5565b60249060405190633250574960e11b82526004820152fd5b9091508681813d8311612723575b6126fe8183612203565b8101031261271f57516001600160e01b03198116810361271f579038612650565b8480fd5b503d6126f4565b903590601e19813603018212156101bc57018035906001600160401b0382116101bc576020019181360383136101bc57565b3580151581036101bc579056fea26469706673582212207b50f6ea118f49ee87f5a63a9739354244a5a83a1aa923baf6a8d5ab219aec5064736f6c63430008140033",
  "devdoc": {
    "errors": {
      "ERC721IncorrectOwner(address,uint256,address)": [
        {
          "details": "Indicates an error related to the ownership over a particular token. Used in transfers.",
          "params": {
            "owner": "Address of the current owner of a token.",
            "sender": "Address whose tokens are being transferred.",
            "tokenId": "Identifier number of a token."
          }
        }
      ],
      "ERC721InsufficientApproval(address,uint256)": [
        {
          "details": "Indicates a failure with the `operator`s approval. Used in transfers.",
          "params": {
            "operator": "Address that may be allowed to operate on tokens without being their owner.",
            "tokenId": "Identifier number of a token."
          }
        }
      ],
      "ERC721InvalidApprover(address)": [
        {
          "details": "Indicates a failure with the `approver` of a token to be approved. Used in approvals.",
          "params": {
            "approver": "Address initiating an approval operation."
          }
        }
      ],
      "ERC721InvalidOperator(address)": [
        {
          "details": "Indicates a failure with the `operator` to be approved. Used in approvals.",
          "params": {
            "operator": "Address that may be allowed to operate on tokens without being their owner."
          }
        }
      ],
      "ERC721InvalidOwner(address)": [
        {
          "details": "Indicates that an address can't be an owner. For example, `address(0)` is a forbidden owner in ERC-20. Used in balance queries.",
          "params": {
            "owner": "Address of the current owner of a token."
          }
        }
      ],
      "ERC721InvalidReceiver(address)": [
        {
          "details": "Indicates a failure with the token `receiver`. Used in transfers.",
          "params": {
            "receiver": "Address to which tokens are being transferred."
          }
        }
      ],
      "ERC721InvalidSender(address)": [
        {
          "details": "Indicates a failure with the token `sender`. Used in transfers.",
          "params": {
            "sender": "Address whose tokens are being transferred."
          }
        }
      ],
      "ERC721NonexistentToken(uint256)": [
        {
          "details": "Indicates a `tokenId` whose `owner` is the zero address.",
          "params": {
            "tokenId": "Identifier number of a token."
          }
        }
      ],
      "OwnableInvalidOwner(address)": [
        {
          "details": "The owner is not a valid owner account. (eg. `address(0)`)"
        }
      ],
      "OwnableUnauthorizedAccount(address)": [
        {
          "details": "The caller account is not authorized to perform an operation."
        }
      ]
    },
    "events": {
      "Approval(address,address,uint256)": {
        "details": "Emitted when `owner` enables `approved` to manage the `tokenId` token."
      },
      "ApprovalForAll(address,address,bool)": {
        "details": "Emitted when `owner` enables or disables (`approved`) `operator` to manage all of its assets."
      },
      "Transfer(address,address,uint256)": {
        "details": "Emitted when `tokenId` token is transferred from `from` to `to`."
      }
    },
    "kind": "dev",
    "methods": {
      "approve(address,uint256)": {
        "details": "See {IERC721-approve}."
      },
      "balanceOf(address)": {
        "details": "See {IERC721-balanceOf}."
      },
      "getApproved(uint256)": {
        "details": "See {IERC721-getApproved}."
      },
      "isApprovedForAll(address,address)": {
        "details": "See {IERC721-isApprovedForAll}."
      },
      "name()": {
        "details": "See {IERC721Metadata-name}."
      },
      "owner()": {
        "details": "Returns the address of the current owner."
      },
      "ownerOf(uint256)": {
        "details": "See {IERC721-ownerOf}."
      },
      "renounceOwnership()": {
        "details": "Leaves the contract without owner. It will not be possible to call `onlyOwner` functions. Can only be called by the current owner. NOTE: Renouncing ownership will leave the contract without an owner, thereby disabling any functionality that is only available to the owner."
      },
      "safeTransferFrom(address,address,uint256)": {
        "details": "See {IERC721-safeTransferFrom}."
      },
      "safeTransferFrom(address,address,uint256,bytes)": {
        "details": "See {IERC721-safeTransferFrom}."
      },
      "setApprovalForAll(address,bool)": {
        "details": "See {IERC721-setApprovalForAll}."
      },
      "supportsInterface(bytes4)": {
        "details": "See {IERC165-supportsInterface}."
      },
      "symbol()": {
        "details": "See {IERC721Metadata-symbol}."
      },
      "tokenURI(uint256)": {
        "details": "See {IERC721Metadata-tokenURI}."
      },
      "transferFrom(address,address,uint256)": {
        "details": "See {IERC721-transferFrom}."
      },
      "transferOwnership(address)": {
        "details": "Transfers ownership of the contract to a new account (`newOwner`). Can only be called by the current owner."
      }
    },
    "version": 1
  },
  "userdoc": {
    "kind": "user",
    "methods": {},
    "version": 1
  },
  "storageLayout": {
    "storage": [
      {
        "astId": 317,
        "contract": "contracts/EventTicketing.sol:EventTicketing",
        "label": "_name",
        "offset": 0,
        "slot": "0",
        "type": "t_string_storage"
      },
      {
        "astId": 319,
        "contract": "contracts/EventTicketing.sol:EventTicketing",
        "label": "_symbol",
        "offset": 0,
        "slot": "1",
        "type": "t_string_storage"
      },
      {
        "astId": 323,
        "contract": "contracts/EventTicketing.sol:EventTicketing",
        "label": "_owners",
        "offset": 0,
        "slot": "2",
        "type": "t_mapping(t_uint256,t_address)"
      },
      {
        "astId": 327,
        "contract": "contracts/EventTicketing.sol:EventTicketing",
        "label": "_balances",
        "offset": 0,
        "slot": "3",
        "type": "t_mapping(t_address,t_uint256)"
      },
      {
        "astId": 331,
        "contract": "contracts/EventTicketing.sol:EventTicketing",
        "label": "_tokenApprovals",
        "offset": 0,
        "slot": "4",
        "type": "t_mapping(t_uint256,t_address)"
      },
      {
        "astId": 337,
        "contract": "contracts/EventTicketing.sol:EventTicketing",
        "label": "_operatorApprovals",
        "offset": 0,
        "slot": "5",
        "type": "t_mapping(t_address,t_mapping(t_address,t_bool))"
      },
      {
        "astId": 8,
        "contract": "contracts/EventTicketing.sol:EventTicketing",
        "label": "_owner",
        "offset": 0,
        "slot": "6",
        "type": "t_address"
      },
      {
        "astId": 5444,
        "contract": "contracts/EventTicketing.sol:EventTicketing",
        "label": "_tokenIds",
        "offset": 0,
        "slot": "7",
        "type": "t_uint256"
      },
      {
        "astId": 5446,
        "contract": "contracts/EventTicketing.sol:EventTicketing",
        "label": "_eventIds",
        "offset": 0,
        "slot": "8",
        "type": "t_uint256"
      },
      {
        "astId": 5526,
        "contract": "contracts/EventTicketing.sol:EventTicketing",
        "label": "events",
        "offset": 0,
        "slot": "9",
        "type": "t_mapping(t_uint256,t_struct(Event)5521_storage)"
      },
      {
        "astId": 5532,
        "contract": "contracts/EventTicketing.sol:EventTicketing",
        "label": "eventTickets",
        "offset": 0,
        "slot": "10",
        "type": "t_mapping(t_uint256,t_mapping(t_bytes32,t_bool))"
      },
      {
        "astId": 5536,
        "contract": "contracts/EventTicketing.sol:EventTicketing",
        "label": "ticketEventMapping",
        "offset": 0,
        "slot": "11",
        "type": "t_mapping(t_uint256,t_uint256)"
      },
      {
        "astId": 5541,
        "contract": "contracts/EventTicketing.sol:EventTicketing",
        "label": "userEvents",
        "offset": 0,
        "slot": "12",
        "type": "t_mapping(t_bytes32,t_array(t_uint256)dyn_storage)"
      },
      {
        "astId": 5545,
        "contract": "contracts/EventTicketing.sol:EventTicketing",
        "label": "ticketHashes",
        "offset": 0,
        "slot": "13",
        "type": "t_mapping(t_bytes32,t_uint256)"
      }
    ],
    "types": {
      "t_address": {
        "encoding": "inplace",
        "label": "address",
        "numberOfBytes": "20"
      },
      "t_array(t_uint256)dyn_storage": {
        "base": "t_uint256",
        "encoding": "dynamic_array",
        "label": "uint256[]",
        "numberOfBytes": "32"
      },
      "t_bool": {
        "encoding": "inplace",
        "label": "bool",
        "numberOfBytes": "1"
      },
      "t_bytes32": {
        "encoding": "inplace",
        "label": "bytes32",
        "numberOfBytes": "32"
      },
      "t_enum(EventStatus)5450": {
        "encoding": "inplace",
        "label": "enum EventTicketing.EventStatus",
        "numberOfBytes": "1"
      },
      "t_mapping(t_address,t_bool)": {
        "encoding": "mapping",
        "key": "t_address",
        "label": "mapping(address => bool)",
        "numberOfBytes": "32",
        "value": "t_bool"
      },
      "t_mapping(t_address,t_mapping(t_address,t_bool))": {
        "encoding": "mapping",
        "key": "t_address",
        "label": "mapping(address => mapping(address => bool))",
        "numberOfBytes": "32",
        "value": "t_mapping(t_address,t_bool)"
      },
      "t_mapping(t_address,t_uint256)": {
        "encoding": "mapping",
        "key": "t_address",
        "label": "mapping(address => uint256)",
        "numberOfBytes": "32",
        "value": "t_uint256"
      },
      "t_mapping(t_bytes32,t_array(t_uint256)dyn_storage)": {
        "encoding": "mapping",
        "key": "t_bytes32",
        "label": "mapping(bytes32 => uint256[])",
        "numberOfBytes": "32",
        "value": "t_array(t_uint256)dyn_storage"
      },
      "t_mapping(t_bytes32,t_bool)": {
        "encoding": "mapping",
        "key": "t_bytes32",
        "label": "mapping(bytes32 => bool)",
        "numberOfBytes": "32",
        "value": "t_bool"
      },
      "t_mapping(t_bytes32,t_uint256)": {
        "encoding": "mapping",
        "key": "t_bytes32",
        "label": "mapping(bytes32 => uint256)",
        "numberOfBytes": "32",
        "value": "t_uint256"
      },
      "t_mapping(t_uint256,t_address)": {
        "encoding": "mapping",
        "key": "t_uint256",
        "label": "mapping(uint256 => address)",
        "numberOfBytes": "32",
        "value": "t_address"
      },
      "t_mapping(t_uint256,t_mapping(t_bytes32,t_bool))": {
        "encoding": "mapping",
        "key": "t_uint256",
        "label": "mapping(uint256 => mapping(bytes32 => bool))",
        "numberOfBytes": "32",
        "value": "t_mapping(t_bytes32,t_bool)"
      },
      "t_mapping(t_uint256,t_struct(Event)5521_storage)": {
        "encoding": "mapping",
        "key": "t_uint256",
        "label": "mapping(uint256 => struct EventTicketing.Event)",
        "numberOfBytes": "32",
        "value": "t_struct(Event)5521_storage"
      },
      "t_mapping(t_uint256,t_uint256)": {
        "encoding": "mapping",
        "key": "t_uint256",
        "label": "mapping(uint256 => uint256)",
        "numberOfBytes": "32",
        "value": "t_uint256"
      },
      "t_string_storage": {
        "encoding": "bytes",
        "label": "string",
        "numberOfBytes": "32"
      },
      "t_struct(Event)5521_storage": {
        "encoding": "inplace",
        "label": "struct EventTicketing.Event",
        "members": [
          {
            "astId": 5483,
            "contract": "contracts/EventTicketing.sol:EventTicketing",
            "label": "eventId",
            "offset": 0,
            "slot": "0",
            "type": "t_uint256"
          },
          {
            "astId": 5485,
            "contract": "contracts/EventTicketing.sol:EventTicketing",
            "label": "organizer",
            "offset": 0,
            "slot": "1",
            "type": "t_address"
          },
          {
            "astId": 5487,
            "contract": "contracts/EventTicketing.sol:EventTicketing",
            "label": "name",
            "offset": 0,
            "slot": "2",
            "type": "t_string_storage"
          },
          {
            "astId": 5489,
            "contract": "contracts/EventTicketing.sol:EventTicketing",
            "label": "description",
            "offset": 0,
            "slot": "3",
            "type": "t_string_storage"
          },
          {
            "astId": 5491,
            "contract": "contracts/EventTicketing.sol:EventTicketing",
            "label": "imageCID",
            "offset": 0,
            "slot": "4",
            "type": "t_string_storage"
          },
          {
            "astId": 5493,
            "contract": "contracts/EventTicketing.sol:EventTicketing",
            "label": "startTime",
            "offset": 0,
            "slot": "5",
            "type": "t_uint256"
          },
          {
            "astId": 5495,
            "contract": "contracts/EventTicketing.sol:EventTicketing",
            "label": "endTime",
            "offset": 0,
            "slot": "6",
            "type": "t_uint256"
          },
          {
            "astId": 5497,
            "contract": "contracts/EventTicketing.sol:EventTicketing",
            "label": "venueName",
            "offset": 0,
            "slot": "7",
            "type": "t_string_storage"
          },
          {
            "astId": 5499,
            "contract": "contracts/EventTicketing.sol:EventTicketing",
            "label": "streetAddress",
            "offset": 0,
            "slot": "8",
            "type": "t_string_storage"
          },
          {
            "astId": 5501,
            "contract": "contracts/EventTicketing.sol:EventTicketing",
            "label": "city",
            "offset": 0,
            "slot": "9",
            "type": "t_string_storage"
          },
          {
            "astId": 5503,
            "contract": "contracts/EventTicketing.sol:EventTicketing",
            "label": "state",
            "offset": 0,
            "slot": "10",
            "type": "t_string_storage"
          },
          {
            "astId": 5505,
            "contract": "contracts/EventTicketing.sol:EventTicketing",
            "label": "postalCode",
            "offset": 0,
            "slot": "11",
            "type": "t_string_storage"
          },
          {
            "astId": 5507,
            "contract": "contracts/EventTicketing.sol:EventTicketing",
            "label": "country",
            "offset": 0,
            "slot": "12",
            "type": "t_string_storage"
          },
          {
            "astId": 5509,
            "contract": "contracts/EventTicketing.sol:EventTicketing",
            "label": "isOnline",
            "offset": 0,
            "slot": "13",
            "type": "t_bool"
          },
          {
            "astId": 5511,
            "contract": "contracts/EventTicketing.sol:EventTicketing",
            "label": "ticketPrice",
            "offset": 0,
            "slot": "14",
            "type": "t_uint256"
          },
          {
            "astId": 5513,
            "contract": "contracts/EventTicketing.sol:EventTicketing",
            "label": "maxAttendees",
            "offset": 0,
            "slot": "15",
            "type": "t_uint256"
          },
          {
            "astId": 5515,
            "contract": "contracts/EventTicketing.sol:EventTicketing",
            "label": "ticketsSold",
            "offset": 0,
            "slot": "16",
            "type": "t_uint256"
          },
          {
            "astId": 5518,
            "contract": "contracts/EventTicketing.sol:EventTicketing",
            "label": "status",
            "offset": 0,
            "slot": "17",
            "type": "t_enum(EventStatus)5450"
          },
          {
            "astId": 5520,
            "contract": "contracts/EventTicketing.sol:EventTicketing",
            "label": "isPrivate",
            "offset": 1,
            "slot": "17",
            "type": "t_bool"
          }
        ],
        "numberOfBytes": "576"
      },
      "t_uint256": {
        "encoding": "inplace",
        "label": "uint256",
        "numberOfBytes": "32"
      }
    }
  }
}