{
  "address": "0xA5f137155c638d17D4D7D1A411B3cD139fF64C8F",
  "abi": [
    {
      "inputs": [
        {
          "internalType": "uint256[2]",
          "name": "_pA",
          "type": "uint256[2]"
        },
        {
          "internalType": "uint256[2][2]",
          "name": "_pB",
          "type": "uint256[2][2]"
        },
        {
          "internalType": "uint256[2]",
          "name": "_pC",
          "type": "uint256[2]"
        },
        {
          "internalType": "uint256[48]",
          "name": "_pubSignals",
          "type": "uint256[48]"
        }
      ],
      "name": "verifyProof",
      "outputs": [
        {
          "internalType": "bool",
          "name": "",
          "type": "bool"
        }
      ],
      "stateMutability": "view",
      "type": "function"
    }
  ],
  "transactionHash": "0xbddc7e2ce4c034391e77517e8b26fb551a7b88e278b328774cece2ecda918d82",
  "args": [],
  "numDeployments": 1,
  "solcInputHash": "89313824d0c1229cd6323e131f3dd247",
  "bytecode": "0x60808060405234610016576121ba908161001c8239f35b600080fdfe6080604052600436101561001257600080fd5b6000803560e01c63e8c56d591461002857600080fd5b346102bd576107003660031901126102bd57610043366102c0565b3660c4116102b957610054366102d2565b9036610704116102b557602092916102b191610400604052610078610104356102e0565b610084610124356102e0565b610090610144356102e0565b61009c610164356102e0565b6100a8610184356102e0565b6100b46101a4356102e0565b6100c06101c4356102e0565b6100cc6101e4356102e0565b6100d8610204356102e0565b6100e4610224356102e0565b6100f0610244356102e0565b6100fc610264356102e0565b610108610284356102e0565b6101146102a4356102e0565b6101206102c4356102e0565b61012c6102e4356102e0565b610138610304356102e0565b610144610324356102e0565b610150610344356102e0565b61015c610364356102e0565b610168610384356102e0565b6101746103a4356102e0565b6101806103c4356102e0565b61018c6103e4356102e0565b610198610404356102e0565b6101a4610424356102e0565b6101b0610444356102e0565b6101bc610464356102e0565b6101c8610484356102e0565b6101d46104a4356102e0565b6101e06104c4356102e0565b6101ec6104e4356102e0565b6101f8610504356102e0565b610204610524356102e0565b610210610544356102e0565b61021c610564356102e0565b610228610584356102e0565b6102346105a4356102e0565b6102406105c4356102e0565b61024c6105e4356102e0565b610258610604356102e0565b610264610624356102e0565b610270610644356102e0565b61027c610664356102e0565b610288610684356102e0565b6102946106a4356102e0565b6102a06106c4356102e0565b6102ac6106e4356102e0565b611cf1565b8152f35b8280fd5b5080fd5b80fd5b906004916044116102cd57565b600080fd5b9060c491610104116102cd57565b7f30644e72e131a029b85045b68181585d2833e84879b9709143e1f593f0000001111561030957565b6000805260206000f35b604051907f26a3addf269b1af47a1bee7c2ada2297d4d2b5503967cdecb9d71d2ea9a7994e82527f1286edef2739d504e55fc9113c52d536cf2801159e090018171314f8c4431b796020830152604082019081526107cf196040836060816007855a01fa156103095760409260066080939284938451905260a05160608401525a01fa1561030957565b604051907f1c5db8062d9816eeb63eb0a6aacb1e6b1a5648da2200c66a42faec9bb92b65a682527f06a8cd7b9a7c87ed45a10f6d4a8f088771b5462072ad0bef725276e4b1cc32b66020830152604082019081526107cf196040836060816007855a01fa156103095760409260066080939284938451905260a05160608401525a01fa1561030957565b604051907f0ddc59d6a40e51674dc9d532eb78a5cd85fb866904145301349b7dd7e3ab626682527f1bf1468510da3b8318bf4f3fb917c5c791a9aa90c6776e781c9dfb86ab8c4b3a6020830152604082019081526107cf196040836060816007855a01fa156103095760409260066080939284938451905260a05160608401525a01fa1561030957565b604051907f2edf02b17c0fbd002a7e7770d565a036440fc49b66f36a3a6dbf4531d63ea1ba82527f0b2825137fce3c308881fad6aa5c936ab374dd045f02aa843f7b0596c07c047f6020830152604082019081526107cf196040836060816007855a01fa156103095760409260066080939284938451905260a05160608401525a01fa1561030957565b604051907f15f1d04768e8ad7a0de97b38ed90cf253b9eeb4494b58557136c10330bef52c882527f06d8cd5ab526878cfd0cb4a60fdcea7ad3ca767496ed52558c8fcbfc14aed1a66020830152604082019081526107cf196040836060816007855a01fa156103095760409260066080939284938451905260a05160608401525a01fa1561030957565b604051907f156fba9daad71a993689d2b91f603ccf14058eef277fc709d73c263f1a77d2ab82527f04b793383d81df03f0c9efbcd48c76e08309f5bbe9fcec3ed00d94042958fc946020830152604082019081526107cf196040836060816007855a01fa156103095760409260066080939284938451905260a05160608401525a01fa1561030957565b604051907f19affd7962198a64d9363efd5427044cf79aed802dda76fdfdcab3bef52f9b5482527f1c1b87151ab4e9689b869129417ba971b7d0f927b6ced73107990fbcad921a056020830152604082019081526107cf196040836060816007855a01fa156103095760409260066080939284938451905260a05160608401525a01fa1561030957565b604051907f1ed7462bfe41adff995cc511ea3d95096403bad00efc885ea33350a174b175c682527f0231f03aa10c1f2e08b76761fc485dbabedb3b929a63ed56851af80265ddaa816020830152604082019081526107cf196040836060816007855a01fa156103095760409260066080939284938451905260a05160608401525a01fa1561030957565b604051907f2c6991878a38bcdd6644aa48a34b2008fbb5c3a3eeec887d007868bd275d73a182527f04ddc30853a670eb5b46110a96d4f8331389e05216381efbea6edac86d84c5dc6020830152604082019081526107cf196040836060816007855a01fa156103095760409260066080939284938451905260a05160608401525a01fa1561030957565b604051907f2c894670eb29a787a6847cc331921a0f8e42fe77f088450fbf371370fa5fcaac82527f2d76c5eb3d9639d1c7e0a9079efede36402864923462d73334959bcca5cdb9ac6020830152604082019081526107cf196040836060816007855a01fa156103095760409260066080939284938451905260a05160608401525a01fa1561030957565b604051907f18de671765213402240c127b19d290253f987bc99d6b5922e8b8376ba9f95ac182527f07ca6b05140e720bfcce8de9a92d6f0c3e5ff12b97a3ca5fcb63f728e9a615786020830152604082019081526107cf196040836060816007855a01fa156103095760409260066080939284938451905260a05160608401525a01fa1561030957565b604051907f20b3678cd5c119050fe7e541444d53d8e3a8419daa97419a15272e60228920c582527f13bb5b12d5202ec4a455be2e6be2e6742f09065f4476d7350a5239c472e55c736020830152604082019081526107cf196040836060816007855a01fa156103095760409260066080939284938451905260a05160608401525a01fa1561030957565b604051907f0b40b6570b8830e0154accc4abeade9f39f4c93760674dc428bc914e88d5808f82527f25790fbde93d17ddc695f68374d06b82e34b390a515526ca70c462aa24ad0a906020830152604082019081526107cf196040836060816007855a01fa156103095760409260066080939284938451905260a05160608401525a01fa1561030957565b604051907ec7623fd25d9859070caa21849e7a30eb6de9a64e4882ccd9c86fb5843b4f2782527f1d05540b96ad24c95d72b5a969855fcde8e511b7bd28c2b81b647ff5b0cc28056020830152604082019081526107cf196040836060816007855a01fa156103095760409260066080939284938451905260a05160608401525a01fa1561030957565b604051907f0f5e13ece76b1df68c1796ca05a10ac12dedd4fef1094439531c2905b2c2420f82527f21696176be2e61642ac6ac1e04aea358fccb0fc1f15824dcfe5b93bae223acd66020830152604082019081526107cf196040836060816007855a01fa156103095760409260066080939284938451905260a05160608401525a01fa1561030957565b604051907f0f848e43cbcc12bb47a5ea910b484cc712ee7ebb0f6a4ff18ca296c8eb1f68f882527f09e54e0321c9edffc89c2bca1caa3a26c80188d0ce43cf40ee2b8d515cfa955c6020830152604082019081526107cf196040836060816007855a01fa156103095760409260066080939284938451905260a05160608401525a01fa1561030957565b604051907f29ae7143290229ed41263992f162b3e64bc19b7a6071a95312dd9cfc42bfa68582527f305938b3649f0fa9e9edb66a884ba425e046c5efcf82a287e070e95957e672d66020830152604082019081526107cf196040836060816007855a01fa156103095760409260066080939284938451905260a05160608401525a01fa1561030957565b604051907f0f9b5b461411a1bb950248fe50668f4fa99276d00d7b6cef3423f3cdba62a86c82527f1c35c0a54b1003c8efc12752056ee0e6bae2f330c43718482dc7ddc37bbc8f606020830152604082019081526107cf196040836060816007855a01fa156103095760409260066080939284938451905260a05160608401525a01fa1561030957565b604051907f07448cd3f9841696f81120b770e0fb0d76605eb9b19f1d475b644661c3e5850082527f0b454fc6802823c8c264085bec75183e8d82e8b1cfafc44b598f881ffd0446116020830152604082019081526107cf196040836060816007855a01fa156103095760409260066080939284938451905260a05160608401525a01fa1561030957565b604051907f1de4dcb572c7fd53a14506cdf6df7b4c1461a573cd197344f53f75693c5786bd82527f166120f59b3c37bcfef7b36aae5e7c242afbb44afe44cbe331c0993b39bb9b156020830152604082019081526107cf196040836060816007855a01fa156103095760409260066080939284938451905260a05160608401525a01fa1561030957565b604051907f2b7664a8bed5df8b6ad5aae0496450adfd0ae42debdb950f5e022160db5435ee82527f087d064c2fbbc221eed8a47b3447be6ee3a916ec6c345ac266d0e7ff3202e2a16020830152604082019081526107cf196040836060816007855a01fa156103095760409260066080939284938451905260a05160608401525a01fa1561030957565b604051907f105d4599ade774fc48145cc10eb7e125848c7b4ca70a1e3c5d7822fd29aaeeb882527f205849163f79ebb0f65c9b8bafde1d9571e3ee2bf87f2a94acdcc20fa5f8456e6020830152604082019081526107cf196040836060816007855a01fa156103095760409260066080939284938451905260a05160608401525a01fa1561030957565b604051907f1e4548fb4c86b19b5e6f7746dd619cb5e5175f771c62d355535ac22ec5b4918182527f03034f73d6069797d778419c0783dac20a9814eedd16dd786219a8adc93e24a76020830152604082019081526107cf196040836060816007855a01fa156103095760409260066080939284938451905260a05160608401525a01fa1561030957565b604051907f101e055dbbc40807b5229162d7abef4160e2da588f0bc01220a76f4adbc6d68e82527f107a37fa703efc2de2800b7d550f240c2beb174f6365d882ebd130e44c2763b76020830152604082019081526107cf196040836060816007855a01fa156103095760409260066080939284938451905260a05160608401525a01fa1561030957565b604051907f27b2267e1be9b03d482e42fce27d009689ee14e8e5c63301a813cd85f04c8b4782527f03a7cd6eaf535f6543994d5d54babbce9cccb777cfc4c53f9313c4b2de62b6db6020830152604082019081526107cf196040836060816007855a01fa156103095760409260066080939284938451905260a05160608401525a01fa1561030957565b604051907f05fb808b75e6fa9a7d7ee1e243a31f45947162da7d126cc30e3c77d04c1f6c8382527f215193b6d24cccaaacdf7ca222ba22928b907d4149fb36c609213af728712ce16020830152604082019081526107cf196040836060816007855a01fa156103095760409260066080939284938451905260a05160608401525a01fa1561030957565b604051907f0ae22030f5e49b1eb26cbdaf53ee0966f85243ef401b83ef67bfbe47566bf32682527f2371cd93e9c91b1e4f24b4116ac7be01e7cb028da32e4df3a472c2f6768aa0ab6020830152604082019081526107cf196040836060816007855a01fa156103095760409260066080939284938451905260a05160608401525a01fa1561030957565b604051907f22438dd7231c9c4a51f716f61bb6703b1c828461e07b9036b07345ec76c4c19882527f1576815d81d228c77e8542b71cd139b7e33ee101b03814f51bfc08358abe22156020830152604082019081526107cf196040836060816007855a01fa156103095760409260066080939284938451905260a05160608401525a01fa1561030957565b604051907f2b6269c5889246e095b0de5f2cb97ca7f70586651d790731b176b7acd7386f9182527f20be9948bb4e2e9a2eae0ba33c528d0e94646d6b5cdfea8339b6b8328a2294fb6020830152604082019081526107cf196040836060816007855a01fa156103095760409260066080939284938451905260a05160608401525a01fa1561030957565b604051907e7fbd74d331aef61e41b7ad82b3c387e13f6fbe508f511ba8ff04d445d9d42882527f0cd9fce18964c65754df6f65db34617bfe7f90023b75ddad9ab3346ab650370d6020830152604082019081526107cf196040836060816007855a01fa156103095760409260066080939284938451905260a05160608401525a01fa1561030957565b604051907f244f0fc719ef1e3656ec3aa8f846e2725b656d633471160c1e29ab5fb324e70282527f1cc05c8028ca3ad111038ed86d71fdb565c31c50e41000380e3e11e7c341e75a6020830152604082019081526107cf196040836060816007855a01fa156103095760409260066080939284938451905260a05160608401525a01fa1561030957565b604051907f187331025b55d5d7ee45be50e91d940364c38ef184c9882088c1e9ef5e0c4d9b82527f04750734a8d7790749ffb713f7015e1e4cfaa84a857f615598067b78a5cf7f5d6020830152604082019081526107cf196040836060816007855a01fa156103095760409260066080939284938451905260a05160608401525a01fa1561030957565b604051907f054e0a5cf482bf6af9b8c39a613a8eb6784fe1049241adf04e8b7beeeb41de9682527f02cbb5146047e09cefc055a7872c5b8e6720332d385f27596f699899cd594d3f6020830152604082019081526107cf196040836060816007855a01fa156103095760409260066080939284938451905260a05160608401525a01fa1561030957565b604051907f2600f16e75f511152d5f7fc7ac521ac11a5502ab5c6c7bc919b45af39b27347c82527f0793ce1ce38e841182a2b49c85c453e0f9e5ef3952999a9e15d99b128875a8b86020830152604082019081526107cf196040836060816007855a01fa156103095760409260066080939284938451905260a05160608401525a01fa1561030957565b604051907f0d31810f55aaa2356deb3fe00c21c3c31a70af1946c03c36a258cf2f29b18e3482527f06ed93f2726d8ad1b123b691c6addd0346fd07d9493a70287847ce6800766e9f6020830152604082019081526107cf196040836060816007855a01fa156103095760409260066080939284938451905260a05160608401525a01fa1561030957565b604051907f2e0468de57db83fddaf2ac9a771236d6a12e88b64c724bbc6f85992c534b18d782527f0da615a239b949386cd0ea437c3553553257e2884f2410cda338c1e79f7332a36020830152604082019081526107cf196040836060816007855a01fa156103095760409260066080939284938451905260a05160608401525a01fa1561030957565b604051907f08c8930644959a5edad07fa74537ae68619d4aebd806f9174839c932a5428fc582527f1315476a7dabac22df9785d2e92473bc04640a5ef434f3106cd22481d5baf00f6020830152604082019081526107cf196040836060816007855a01fa156103095760409260066080939284938451905260a05160608401525a01fa1561030957565b604051907f182c4faa2ded70fa5ec99c5ac986123a5289d233eeb6e7377bdf31c7f62cd8e982527f260efed3624ac0556d0588a2611534db20afdaef24bd723da706e0dd7ebb53bc6020830152604082019081526107cf196040836060816007855a01fa156103095760409260066080939284938451905260a05160608401525a01fa1561030957565b604051907f1c2e988a04be0ea1a010b17df61930ea01906c14b88f72fcb119cb7935952be382527f18882a99ad4b1b0e7afd9b0465aa16d0484ca5171cea123117389555adff505d6020830152604082019081526107cf196040836060816007855a01fa156103095760409260066080939284938451905260a05160608401525a01fa1561030957565b604051907f08f7c39cac4df0f93ebec112277b2902627943fce7b67406e869d5410d482aaa82527f1a7fa440246c52138890a3ba5aba46984c601ff0a0cc6c2fee7917dfbd6b131f6020830152604082019081526107cf196040836060816007855a01fa156103095760409260066080939284938451905260a05160608401525a01fa1561030957565b604051907f05c4a328f3fd9268a238620ab53c0f86984ac9a23d2346bda28eb958441c6d5b82527f14e05955f4674f954a96cee98729f7ba8d4f00c769e12ee6fdeac62d8201f22f6020830152604082019081526107cf196040836060816007855a01fa156103095760409260066080939284938451905260a05160608401525a01fa1561030957565b604051907f13eb03b25eefabd596f3cada33fc26637a695251ee32f0864d5ce31ec12406ff82527f02381ed8f5467b4b7f1a1577ac030b3b97ee95fffc02440e963b0ef5a717eebb6020830152604082019081526107cf196040836060816007855a01fa156103095760409260066080939284938451905260a05160608401525a01fa1561030957565b604051907f0b81e5d47ddf1bbb3dba324e15f434476553d97c1402191c0f015ac66d3a174282527f2d585f19dc183699475de0b1ba1feac9549e932bb37c080b6bbb826d987520206020830152604082019081526107cf196040836060816007855a01fa156103095760409260066080939284938451905260a05160608401525a01fa1561030957565b604051907f2ceb07ef4685bad5fcc0734ea8b482be4eeaf6d7e5e91cedcc47bd16e7a8fe4a82527f2e6f4a14b9962e44f6393352b7716f32a014d49634c27323fd84f94e4e1ddc426020830152604082019081526107cf196040836060816007855a01fa156103095760409260066080939284938451905260a05160608401525a01fa1561030957565b604051907f2a10791c3787b8e1878636d7dd793b7ae1e9e0724b9df3a364db437c933ed0db82527f2b6ddb9cab8744559552cf37c3e4d0a289559d8cab0ffbf2734fda2f20980bb26020830152604082019081526107cf196040836060816007855a01fa156103095760409260066080939284938451905260a05160608401525a01fa1561030957565b604051907f10f818734cf7766dd6eeed239d8ff450c22d6cab210c5ed082abe00e5f2fae4882527f1e301edd19e752895e93e4f2dae8090dd47428e98119881384beef45c6688b456020830152604082019081526107cf196040836060816007855a01fa156103095760409260066080939284938451905260a05160608401525a01fa1561030957565b604051907f1e8d7062b585d54a00554ac746a924b147e9b083245c27ab777e66f0e1b45ec482527f134cf857bab30a000fc26ac2182b01be1ab3b027d6fc25ccfa57a8e7b1ea61ad6020830152604082019081526107cf196040836060816007855a01fa156103095760409260066080939284938451905260a05160608401525a01fa1561030957565b604051907f13d3bc5b1ca7441a8a4762457ada623db635094bc0c317008b87e1c97cfc3f1a82527f0d1f87aa98d8a39b9296e5db305e3591647110034cae1d191f215650c838847b6020830152604082019081526107cf196040836060816007855a01fa156103095760409260066080939284938451905260a05160608401525a01fa1561030957565b6020907f3018f5c9f477bc572b68d6d20cdc0c33e8ecd5bfa22da2a9556643d1b899ddab6080527f0a1b8385d3860bf44dee90e0311d45c4feb5679c2d87ffab6925e5c27a83868a60a052611d4861010435610313565b611d546101243561039d565b611d6061014435610427565b611d6c610164356104b1565b611d786101843561053b565b611d846101a4356105c5565b611d906101c43561064f565b611d9c6101e4356106d9565b611da861020435610763565b611db4610224356107ed565b611dc061024435610877565b611dcc61026435610901565b611dd86102843561098b565b611de46102a435610a15565b611df06102c435610a9e565b611dfc6102e435610b28565b611e0861030435610bb2565b611e1461032435610c3c565b611e2061034435610cc6565b611e2c61036435610d50565b611e3861038435610dda565b611e446103a435610e64565b611e506103c435610eee565b611e5c6103e435610f78565b611e6861040435611002565b611e746104243561108c565b611e8061044435611116565b611e8c610464356111a0565b611e986104843561122a565b611ea46104a4356112b4565b611eb06104c43561133d565b611ebc6104e4356113c7565b611ec861050435611451565b611ed4610524356114db565b611ee061054435611565565b611eec610564356115ef565b611ef861058435611679565b611f046105a435611703565b611f106105c43561178d565b611f1c6105e435611817565b611f28610604356118a1565b611f346106243561192b565b611f40610644356119b5565b611f4c61066435611a3f565b611f5861068435611ac9565b611f646106a435611b53565b611f706106c435611bdd565b611f7c6106e435611c67565b61010092818492358352837f30644e72e131a029b85045b68181585d97816a916871ca8d3c208c16d87cfd479101358103066101205260443561014052606435610160526084356101805260a4356101a0527f29f8282489c6e309bcb8ce87548c955b2bd4ec41e51e6c668ddb89881f4b604e6101c0527f23a5dcf69d3d0363fe5283556d9b99befa22ee56b22bc7bc292555952224930f6101e0527f252d5f46a40ae47573a52f4a68454101bc2ec539368442cf264ddb17595aa7fc610200527f0d3b74cd2487ccd2f6588bea12dd48f92bbf844ad26d652b053c247ecfd125af610220527f219ce38a6c9befd1792e000d9a07e1c380b355ae20caf1a86ac4fb3c960f8704610240527f29ddccbaaf1a514b19b48b5c8322d71561a12f0063ac9ececc84f1d9f6b89ed5610260526080516102805260a0516102a0527f198e9393920d483a7260bfb731fb5d25f1aa493335a9e71297e485b7aef312c290816102c0527f1800deef121f1e76426a00665e5c4479674322d4f75edadd46debd5cd992f6ed806102e0527f090689d0585ff075ec9e99ad690c3395bc4b313370b38ef355acdadcd122975b9061030093828552867f12c85ea5db8c6deb4aab71808dcb408fe3d1e7690c43d37b4ce6cc0166fa7daa948561032052803561034052013561036052610380526103a0526103c0526103e0528160086107cf195a01fa9051169056fea2646970667358221220241228e1124645cf63dbf5419eea79be2600a9d266f953cdeed6a063718bebc264736f6c63430008140033",
  "devdoc": {
    "kind": "dev",
    "methods": {},
    "version": 1
  },
  "userdoc": {
    "kind": "user",
    "methods": {},
    "version": 1
  },
  "storageLayout": {
    "storage": [],
    "types": null
  }
}